:100000007FC000009DC000009BC00000A8C200008F
:10001000D3C2000095C0000093C0000091C0000052
:100020008FC000008DC000008BC0000089C00000A0
:1000300087C0000085C0000083C0000081C00000B0
:100040007FC000007DC000007BC0000079C00000C0
:1000500077C0000075C0000073C0000071C00000D0
:100060006FC000006DC000006BC0000069C00000E0
:1000700067C000005FC5000063C0000061C00000F1
:100080005FC000005DC000005BC0000059C0000000
:1000900057C0000055C0000053C0000051C0000010
:1000A0004FC000004DC0000096C4000049C00000D1
:1000B00047C0000045C0000043C0000041C0000030
:1000C0003FC000003DC000003BC0000039C0000040
:1000D00037C0000035C0000033C0000031C0000050
:1000E0002FC000001F012C0139014601530160019E
:1000F0006D01F601030210021D022A0237024402BA
:1001000011241FBECFEFD1E2DEBFCDBF00E00CBF98
:1001100012E0A0E0B2E0EEEEF6E100E00BBF02C0BC
:1001200007900D92A633B107D9F722E0A6E3B2E01B
:1001300001C01D92A338B207E1F7F5D50C94750BF9
:100140005FCFFC01868181111FC0613079F4A481E9
:10015000B5812C9181E090E0078002C0880F991F43
:100160000A94E2F7809582238C932CC0A481B581F8
:100170002C9181E090E0078002C0880F991F0A94BB
:10018000E2F7822B8C931EC0613071F4A481B5819B
:100190002C9181E090E0078002C0880F991F0A949B
:1001A000E2F7822B8C930EC0A481B5812C9181E063
:1001B00090E0078002C0880F991F0A94E2F78095AB
:1001C00082238C9382E00895DC01ED91FC911197DC
:1001D000508121E030E017960C9002C0220F331FAF
:1001E0000A94E2F7252B2083662311F0642FA9CF10
:1001F0000895DF92EF92FF920F931F93CF93DF93B7
:10020000182FF62EE42ED22E88E090E00E94540A99
:10021000EC01892B09F474C087E08F1508F473C0D2
:10022000FF82EE82812F90E08730910508F06EC04A
:10023000FC018827EE58FF4F8F4F0C943D0A81E256
:1002400090E09983888380E290E09B838A8382E2B6
:1002500090E09D838C834DC084E290E099838883F5
:1002600083E290E09B838A8385E290E09D838C8388
:1002700040C087E290E09983888386E290E09B8388
:100280008A8388E290E09D838C8333C08AE290E089
:100290009983888389E290E09B838A838BE290E054
:1002A0009D838C8326C08DE290E0998388838CE2C5
:1002B00090E09B838A838EE290E09D838C8319C0BB
:1002C00080E390E0998388838FE290E09B838A8328
:1002D00081E390E09D838C830CC083E390E099835D
:1002E000888382E390E09B838A8384E390E09D830C
:1002F0008C83402F6D2DCE0167DF8C2F9D2F08C082
:1003000080E090E005C080E090E002C080E090E0F6
:10031000DF91CF911F910F91FF90EF90DF900895A3
:10032000FC01A081B1819C9121E030E0078002C0F6
:10033000220F331F0A94E2F7209529232C93613072
:1003400069F4A481B5812C9181E090E0078002C01E
:10035000880F991F0A94E2F7822B8C930895E9E69F
:10036000F0E0908121E030E0D90102C0AA0FBB1F6C
:100370008A95E2F7A0959A2390835081C90102C023
:10038000880F991F6A95E2F7852B80838DB302C091
:10039000220F331F4A95E2F7282B2DBB0895CF92E9
:1003A000DF92EF92FF920F931F93CF93DF93E82E8C
:1003B000F62ED42EC22E88E090E00E94540AEC0162
:1003C000892B09F492C087E08F1508F491C0FF8251
:1003D000DE828E2D90E08730910508F08CC0FC0104
:1003E0008827E758FF4F8F4F0C943D0A81E290E039
:1003F0009983888380E290E09B838A8382E290E005
:100400009D838C834DC084E290E09983888383E24E
:1004100090E09B838A8385E290E09D838C8340C03B
:1004200087E290E09983888386E290E09B838A83C9
:1004300088E290E09D838C8333C08AE290E09983C8
:10044000888389E290E09B838A838BE290E09D839E
:100450008C8326C08DE290E0998388838CE290E0C3
:100460009B838A838EE290E09D838C8319C080E316
:1004700090E0998388838FE290E09B838A8381E375
:1004800090E09D838C830CC083E390E09983888304
:1004900082E390E09B838A8384E390E09D838C8356
:1004A0006C2DCE013DDF0115110541F183E0E8120D
:1004B00028C082E0F8120BC0109339020093380272
:1004C00042E065E084E04BDF8C2F9D2F1FC083E06E
:1004D000F8121AC0109337020093360243E067E027
:1004E00086E03DDF8C2F9D2F11C080E090E00EC094
:1004F00080E090E00BC080E090E008C08C2F9D2F42
:1005000005C08C2F9D2F02C08C2F9D2FDF91CF9186
:100510001F910F91FF90EF90DF90CF900895FC0115
:10052000868181110FC0A281B3812C9130E0C90175
:10053000078002C0959587950A94E2F721E082270B
:1005400081700895A281B3812C9130E0C9010780A8
:1005500002C0959587950A94E2F7817008951F92DD
:100560000F920FB60F9211240BB60F922F933F9359
:100570004F935F936F937F938F939F93AF93BF93AB
:10058000EF93FF93E0913802F0913902309709F030
:100590001995FF91EF91BF91AF919F918F917F91AD
:1005A0006F915F914F913F912F910F900BBE0F90E4
:1005B0000FBE0F901F9018951F920F920FB60F92BB
:1005C00011240BB60F922F933F934F935F936F932A
:1005D0007F938F939F93AF93BF93EF93FF93E0919C
:1005E0003602F0913702309709F01995FF91EF919B
:1005F000BF91AF919F918F917F916F915F914F913B
:100600003F912F910F900BBE0F900FBE0F901F9038
:100610001895CF92DF92FF920F931F93CF93DF93A2
:100620006C01F12C13C0CF2DD0E0CC0FDD1FF601F3
:10063000EC0FFD1F00E010E021E040E061818081CF
:10064000AEDEC65CDD4F99838883F39482E08F151C
:1006500050F7DF91CF911F910F91FF90DF90CF90D6
:1006600008958150883050F4E82FF0E0EE0FFF1F1E
:10067000E65CFD4F8081918152CF089580E008951E
:10068000CF93C1E005C08C2FECDF811105C0CF5F97
:10069000C430C8F380E001C08C2FCF910895EF9251
:1006A000FF920F931F93CF93DF937C0110E012C052
:1006B000C12FD0E0CC0FDD1FF701EC0FFD1F00E0D4
:1006C00021E040E06181808194DDC05CDD4F998351
:1006D00088831F5F173060F3DF91CF911F910F91D7
:1006E000FF90EF9008950F9300E021E040E060E07C
:1006F00080E07FDD90934F0280934E020F9108952A
:1007000061E080914E0290914F021BCD089560E010
:1007100080914E0290914F0214CD0895E0EAF0E0EE
:10072000808180648083E1EAF0E080818260808360
:10073000808188608083E2E7F0E08081826080834E
:1007400086E490E19093A9008093A80008958CB569
:10075000837F8CBD8CB580628CBD8CB580618CBD77
:100760008CB583608CBD8DB58E7F8DBD8CB580645E
:100770008CBD0895833051F4E82FF0E0EC5AFD4F22
:10078000E081F0E0E45DFD4F80810895E82FF0E026
:10079000EC5AFD4FE081E11104C080910602811105
:1007A0000AC080910602811110920602F0E0E45D19
:1007B000FD4F808108958FEF08950F931F93CF937E
:1007C00081E080930602C0E009C00C2F10E08C2F5E
:1007D000D1DFF801E05BFD4F8083CF5FC430A8F329
:1007E000CF911F910F910895CF93DF93FC01611179
:1007F0001FC0462F50E09C01ADECBCEC46D6969550
:10080000879596958795969587959C01220F331F1E
:10081000880F991F880F991F880F991F820F931FA8
:100820009F01281B390BFA01EC5AFD4F208329C088
:10083000462FC62FD0E09C01ADECBCEC26D6969599
:10084000879596958795969587959C01220F331FDE
:10085000880F991F880F991F880F991F820F931F68
:100860009F01281B390BCC5ADD4F28839F010DD6E1
:100870006FEF640F969587959695879596958795D2
:10088000B3DFDF91CF91089520E019C0E22FF0E0AF
:10089000EE0FFF1FEB58FD4FA081B1811496ED9133
:1008A000FC911597308181E090E017960C9002C082
:1008B000880F991F0A94E2F7832B80832F5F2430DF
:1008C00028F30895FC01A481B5814C9121E030E02A
:1008D000C901078002C0880F991F0A94E2F7842B90
:1008E0008C93A481B581078002C0220F331F0A9424
:1008F000E2F720952C930895E0915802F0E0E05B38
:10090000FD4F80818EBD08958091580290E0019640
:1009100083709078992324F401978C6F9F6F0196D0
:100920008093580208958F929F92AF92BF92CF9278
:10093000DF92EF92FF920F931F93CF93DF937C018F
:10094000962E872EB42EA52ED22EC32E10E012C0C6
:10095000C12FD0E0CC0FDD1FF701EC0FFD1F01E030
:1009600020E042E06181808144DCCB58DD4F9983F7
:1009700088831F5F143060F300E020E042E0682DC0
:10098000892D37DC90937E0280937D0220E042E047
:100990006A2D8B2D2EDC909374028093730220E0DD
:1009A00042E06C2D8D2D25DC9093720280937102B4
:1009B000CEDEB4DEDF91CF911F910F91FF90EF90CB
:1009C000DF90CF90BF90AF909F908F90089563E09D
:1009D0000BDFF3CE08951F920F920FB60F921124E2
:1009E0000BB60F922F933F934F935F936F937F9329
:1009F0008F939F93AF93BF93EF93FF9345DF8091C6
:100A00007D0290917E025EDF30915802E32FF0E08C
:100A1000EE0FFF1FEB58FD4F0190F081E02D048099
:100A2000F581E02D208181E090E002C0880F991FC0
:100A30003A95E2F780958223808366DF5DDFFF9140
:100A4000EF91BF91AF919F918F917F916F915F9146
:100A50004F913F912F910F900BBE0F900FBE0F90B3
:100A60001F9018959C01245F3140ADECBCEC0DD576
:100A70009695879596958795969587950895BC0147
:100A800080E090E0E5D32AE137E64CE950E492D4E7
:100A9000B3D3CB0108959C01E7E0F1E080818F772B
:100AA000808383B3816083BBECE7F0E08081806466
:100AB0008083808187608083ABE7B0E08C91886021
:100AC0008C93EAE7F0E08081866080838081806893
:100AD00080838081886080838081806280838C9124
:100AE00085608C93E0E8F0E0908190619083E1E88C
:100AF000F0E0908194609083908198609083EFE61D
:100B0000F0E090819460908381E19AE790938B006C
:100B100080938A002115310521F030935A022093E9
:100B2000590284B3816084BBEAE7F0E0808180648D
:100B3000808308951F920F920FB60F9211240BB667
:100B40000F922F933F934F935F936F937F938F9366
:100B50009F93AF93BF93CF93DF93EF93FF93C09196
:100B60005902D0915A02209741F0809178009091DB
:100B7000790085DF77DFFE011995EAE7F0E08081F3
:100B80008F6E8083FF91EF91DF91CF91BF91AF91F5
:100B90009F918F917F916F915F914F913F912F9195
:100BA0000F900BBE0F900FBE0F901F901895809363
:100BB0005C020895AF92BF92CF92DF92EF92FF92C4
:100BC0000F931F938FE38F9380E88F931F921F9251
:100BD000A12CB12C6501E12CF12C00E81FE320E0F1
:100BE00030E040EA50E46FE672E183E89AE300D136
:100BF0000F900F900F900F901F910F91FF90EF901B
:100C0000DF90CF90BF90AF900895CF93DF9300D047
:100C100000D0CDB7DEB786E0E0E1F2E0DE0111966C
:100C200001900D928A95E1F7CE010196F2DC2696AD
:100C30000FB6F894DEBF0FBECDBFDF91CF91089500
:100C4000CF93DF93CDB7DEB728970FB6F894DEBF0A
:100C50000FBECDBF88E0E6E1F2E0DE011196019023
:100C60000D928A95E1F721E032E041E051E061E048
:100C700070E0CE01019657DE28960FB6F894DEBFDD
:100C80000FBECDBFDF91CF910895CF93DF93CDB746
:100C9000DEB72E970FB6F894DEBF0FBECDBF8EE045
:100CA000EEE1F2E0DE01119601900D928A95E1F7F6
:100CB000CE010196F4DC2E960FB6F894DEBF0FBE7F
:100CC000CDBFDF91CF910895A0DF0DDDB9DFDDDF6E
:100CD00087ED95E0E0CE089580915C02CCD08093C2
:100CE0005B02CEDC81118093070280910702823083
:100CF00041F0833051F0813061F486E190E067DEAD
:100D000008C088E190E063DE04C080915B0290E05F
:100D10005EDE80915B02863110F4F9CC0895883153
:100D200008F0EECC089546DFCFDF78942FEF89E608
:100D300098E1215080409040E1F700C00000CCDFF6
:100D4000FECFCF92DF92EF92FF9220910802309176
:100D5000090240910A0250910B0260916502709164
:100D60006602809167029091680224D36B017C0136
:100D700020E030E0A90160916102709162028091EF
:100D800063029091640216D39B01AC01C701B601C6
:100D900063D1FF90EF90DF90CF900895CF92DF92D4
:100DA000EF92FF92C0906502D0906602E0906702D9
:100DB000F090680220910C0230910D0240910E02D9
:100DC00050910F02C701B601F5D29B01AC01C701DA
:100DD000B601F0D220916D0230916E0240916F0207
:100DE0005091700239D1FF90EF90DF90CF9008952D
:100DF000AF92BF92CF92DF92EF92FF920F931F9329
:100E0000CF93DF93CDB7DEB760936D0270936E0220
:100E100080936F02909370022093690230936A026C
:100E200040936B0250936C02E0926502F09266026E
:100E30000093670210936802A0926102B09262026E
:100E4000C0926302D09264028E859F85A889B98979
:100E500080935D0290935E02A0935F02B093600264
:100E6000DF91CF911F910F91FF90EF90DF90CF9086
:100E7000BF90AF9008954F925F926F927F928F9242
:100E80009F92AF92BF92CF92DF92EF92FF92CF9359
:100E9000DF93CDB7DEB729970FB6F894DEBF0FBE4C
:100EA000CDBF8987609108027091090280910A0282
:100EB00090910B0220E030E04FE753E431D18111F3
:100EC00039C020915D0230915E0240915F025091E5
:100ED000600260E070E080E89FE326D16B017C0156
:100EE0002985622F70E080E090E0B4D1A7019601DF
:100EF00061D2609308027093090280930A02909372
:100F00000B022091690230916A0240916B0250916C
:100F10006C02C701B6014ED29B01AC01C701B601FC
:100F200049D260930C0270930D0280930E0290934D
:100F30000F0272C006DF69837A838B839C832EDF66
:100F40006B017C0180905D0290905E02A0905F0238
:100F5000B0906002A50194012DD22B013C019B01B0
:100F6000AC01C501B40126D22091690230916A0218
:100F700040916B0250916C026FD09B01AC0160E01C
:100F800070E080E89FE3D0D09B01AC01C301B201C7
:100F900011D22B013C01A501940169817A818B81D9
:100FA0009C8108D26D837E838F8398872985622FE9
:100FB00070E080E090E04ED12D813E814F815885D8
:100FC0004AD09B01AC01C301B201F4D19B01AC0139
:100FD00069817A818B819C813FD0609308027093F4
:100FE000090280930A0290930B02A3019201C501AA
:100FF000B401E0D19B01AC01C701B601DBD19B017B
:10100000AC01C701B60127D060930C0270930D02AA
:1010100080930E0290930F02609108027091090272
:1010200080910A0290910B02E7D0862F29960FB685
:10103000F894DEBF0FBECDBFDF91CF91FF90EF9050
:10104000DF90CF90BF90AF909F908F907F906F90E8
:101050005F904F9008955058BB27AA270ED070C1BB
:1010600061D130F066D120F031F49F3F11F41EF4CD
:1010700056C10EF4E095E7FB4CC1E92F72D180F325
:10108000BA17620773078407950718F071F49EF585
:101090008AC10EF4E0950B2EBA2FA02D0B01B901D9
:1010A00090010C01CA01A0011124FF27591B99F0DE
:1010B000593F50F4503E68F11A16F040A22F232FEA
:1010C000342F4427585FF3CF469537952795A7953A
:1010D000F0405395C9F77EF41F16BA0B620B730BE1
:1010E000840BBAF09150A1F0FF0FBB1F661F771F52
:1010F000881FC2F70EC0BA0F621F731F841F48F407
:10110000879577956795B795F7959E3F08F0B3CF8C
:101110009395880F08F09927EE0F97958795089576
:10112000D4D008F481E008950CD00AC102D140F077
:10113000F9D030F021F45F3F19F0EBC0511134C108
:10114000EEC00FD198F39923C9F35523B1F3951B42
:10115000550BBB27AA2762177307840738F09F5FD8
:101160005F4F220F331F441FAA1FA9F333D00E2E47
:101170003AF0E0E830D091505040E695001CCAF7B4
:1011800029D0FE2F27D0660F771F881FBB1F261779
:1011900037074807AB07B0E809F0BB0B802DBF014C
:1011A000FF2793585F4F2AF09E3F510568F0B1C06A
:1011B000FBC05F3FECF3983EDCF38695779567952F
:1011C000B795F7959F5FC9F7880F911D96958795FD
:1011D00097F90895E1E0660F771F881FBB1F62171C
:1011E00073078407BA0720F0621B730B840BBA0BDA
:1011F000EE1F88F7E0950895BCD088F09F5790F0D7
:10120000B92F9927B751A0F0D1F0660F771F881F2B
:10121000991F1AF0BA95C9F712C0B13081F0C3D046
:10122000B1E00895C0C0672F782F8827B85F39F0E4
:10123000B93FCCF3869577956795B395D9F73EF48A
:1012400090958095709561957F4F8F4F9F4F089532
:10125000E89409C097FB3EF4909580957095619550
:101260007F4F8F4F9F4F9923A9F0F92F96E9BB2706
:101270009395F695879577956795B795F111F8CF82
:10128000FAF4BB0F11F460FF1BC06F5F7F4F8F4FED
:101290009F4F16C0882311F096E911C0772321F0E3
:1012A0009EE8872F762F05C0662371F096E8862F7B
:1012B00070E060E02AF09A95660F771F881FDAF7D2
:1012C000880F9695879597F90895990F0008550FFF
:1012D000AA0BE0E8FEEF16161706E807F907C0F0BC
:1012E00012161306E407F50798F0621B730B840BC4
:1012F000950B39F40A2661F0232B242B252B21F49E
:1013000008950A2609F4A140A6958FEF811D811D3D
:10131000089597F99F6780E870E060E008959FEF77
:1013200080EC089500240A9416161706180609067C
:10133000089500240A94121613061406050608954B
:10134000092E0394000C11F4882352F0BB0F40F4D3
:10135000BF2B11F460FF04C06F5F7F4F8F4F9F4F13
:10136000089557FD9058440F551F59F05F3F71F095
:101370004795880F97FB991F61F09F3F79F08795FC
:101380000895121613061406551FF2CF4695F1DF85
:1013900008C0161617061806991FF1CF8695710515
:1013A000610508940895E894BB2766277727CB0149
:1013B00097F908950BD0C4CFB5DF28F0BADF18F045
:1013C000952309F0A6CFABCF1124EECFCADFA0F34F
:1013D000959FD1F3950F50E0551F629FF001729FCA
:1013E000BB27F00DB11D639FAA27F00DB11DAA1FE9
:1013F000649F6627B00DA11D661F829F2227B00D36
:10140000A11D621F739FB00DA11D621F839FA00DC0
:10141000611D221F749F3327A00D611D231F849F10
:10142000600D211D822F762F6A2F11249F57504067
:101430008AF0E1F088234AF0EE0FFF1FBB1F661F02
:10144000771F881F91505040A9F79E3F510570F0BB
:1014500060CFAACF5F3FECF3983EDCF3869577959B
:101460006795B795F795E7959F5FC1F7FE2B880FB6
:10147000911D9695879597F90895EE0FFF1F881F88
:101480008BBF0790F691E02D1994A29FB001B39FF6
:10149000C001A39F700D811D1124911DB29F700D7D
:1014A000811D1124911D08950F931F93CF93DF93F6
:1014B0008230910510F482E090E0E0918102F09199
:1014C000820220E030E0A0E0B0E0309719F14081E6
:1014D00051810281138148175907C8F08417950775
:1014E00069F4109731F012960C93129713961C938F
:1014F00027C0009381021093820222C0211531057A
:1015000019F04217530718F49A01BD01EF01DF01EA
:10151000F801DBCF21153105F9F0281B390B2430F8
:10152000310580F48A819B816115710521F0FB01F1
:101530009383828304C09093820280938102FE0190
:10154000329644C0FE01E20FF31F81939193225023
:101550003109398328833AC020917F02309180027B
:10156000232B41F420910202309103023093800238
:1015700020937F0220910002309101022115310554
:1015800041F42DB73EB74091040250910502241B4F
:10159000350BE0917F02F0918002E217F307A0F48F
:1015A0002E1B3F0B2817390778F0AC014E5F5F4FB9
:1015B0002417350748F04E0F5F1F50938002409369
:1015C0007F028193919302C0E0E0F0E0CF01DF91D0
:1015D000CF911F910F910895CF93DF93009709F456
:1015E00081C0FC01329713821282A0918102B091D6
:1015F0008202109781F420813181820F931F209104
:101600007F02309180022817390751F5F09380024C
:10161000E0937F0267C0ED0120E030E0CE17DF07E6
:1016200040F44A815B819E0141155105F1F0EA01C8
:10163000F5CFD383C28340815181840F951FC81792
:10164000D90759F488819981840F951F0296918357
:1016500080838A819B81938382832115310529F4BC
:10166000F0938202E09381023DC0E901FB83EA83AB
:1016700049915991C40FD51FEC17FD0761F4808182
:101680009181840F951F0296E90199838883828155
:1016900093819B838A83E0E0F0E012968D919C9188
:1016A0001397009719F0FD01DC01F7CF8D919C9104
:1016B00011979D012E5F3F4F820F931F20917F0254
:1016C000309180022817390769F4309729F4109275
:1016D00082021092810202C013821282B0938002B1
:0E16E000A0937F02DF91CF910895F894FFCF81
:1016EE00000083022000010300007F43000080BF42
:1016FE0002000201020205000501050205030001B8
:10170E00000200030004000500060007039F250DDC
:06171E009949411F011969
:00000001FF
