S014000061737369676E6D656E745F342E7372656344
S11300007CC000009AC0000098C0000093C10000AA
S1130010BEC1000092C0000090C000008EC000006D
S11300208CC000008AC0000088C0000086C00000A8
S113003084C0000082C0000080C000007EC00000B8
S11300407CC000007AC0000078C0000076C00000C8
S113005074C0000072C0000070C000006EC00000D8
S11300606CC000006AC0000068C0000066C00000E8
S113007064C00000CEC5000060C000005EC0000087
S11300805CC000005AC0000058C0000056C0000008
S113009054C0000052C0000050C000004EC0000018
S11300A04CC000004AC0000001C5000046C000006A
S11300B044C0000042C0000040C000003EC0000038
S11300C03CC000003AC0000038C0000036C0000048
S11300D034C0000032C0000030C000002EC0000058
S11300E02CC0000018022C024002540268027C0258
S11300F09002A402B802CC02E00211241FBECFEF8A
S1130100D1E2DEBFCDBF00E00CBF12E0A0E0B2E060
S1130110E6E1F9E100E00BBF02C007900D92A834BC
S1130120B107D9F722E0A8E4B2E001C01D92A93AD0
S1130130B207E1F70CD70C94890C62CFDC01ED9186
S1130140FC911197408121E030E0C90117960C9091
S113015002C0880F991F0A94E2F7842B80830895C4
S1130160FC01868181111FC0613079F4A481B581BD
S11301702C9181E090E0078002C0880F991F0A94B7
S1130180E2F7809582238C932CC0A481B5812C91B5
S113019081E090E0078002C0880F991F0A94E2F77B
S11301A0822B8C931EC0613071F4A481B5812C9193
S11301B081E090E0078002C0880F991F0A94E2F75B
S11301C0822B8C930EC0A481B5812C9181E090E0A8
S11301D0078002C0880F991F0A94E2F78095822352
S11301E08C9382E008951F93CF93DF93122FFCD05A
S11301F0EC01A4DF612FCE01B3DFCE01DF91CF91FB
S11302001F910895FC01A081B1819C9121E030E00F
S1130210078002C0220F331F0A94E2F72095292396
S11302202C93613069F4A481B5812C9181E090E034
S1130230078002C0880F991F0A94E2F7822B8C93DF
S11302400895E9E6F0E0908121E030E0D90102C0B0
S1130250AA0FBB1F8A95E2F7A0959A239083508139
S1130260C90102C0880F991F6A95E2F7852B808324
S11302708DB302C0220F331F4A95E2F7282B2DBB02
S11302800895DF92EF92FF920F931F93CF93DF9322
S1130290F82EE62ED22EA8D0EC016D2DB3DF011579
S11302A01105D1F083E0F81217C082E0E81209C00A
S11302B010934B0200934A0242E065E084E0C1DF00
S11302C00BC083E0E81208C010934902009348026F
S11302D043E067E086E0B5DFCE01DF91CF911F9167
S11302E00F91FF90EF90DF900895FC0186818823A1
S11302F019F0813081F01CC0A281B3812C9130E0CF
S1130300C901078002C0959587950A94E2F721E018
S1130310822781700895A281B3812C9130E0C901B4
S1130320078002C0959587950A94E2F78170089535
S113033080E008951F920F920FB60F9211240BB60E
S11303400F922F933F934F935F936F937F938F936A
S11303509F93AF93BF93EF93FF93E0914A02F09181
S11303604B02309709F01995FF91EF91BF91AF912E
S11303709F918F917F916F915F914F913F912F91B9
S11303800F900BBE0F900FBE0F901F9018951F92E9
S11303900F920FB60F9211240BB60F922F933F9327
S11303A04F935F936F937F938F939F93AF93BF9379
S11303B0EF93FF93E0914802F0914902309709F0DE
S11303C01995FF91EF91BF91AF919F918F917F917B
S11303D06F915F914F913F912F910F900BBE0F90B2
S11303E00FBE0F901F9018951F93CF93DF93C82FC4
S11303F0D62F142F88E090E00E94680BDC01892B33
S113040009F4F2C0D83008F0F2C01796DC931797BD
S113041016961C9316974C2F50E04B30510508F05C
S1130420E9C0FA018827EE58FF4F8F4F0C94510B07
S113043081E290E011969C938E9380E290E0139673
S11304409C938E93129782E290E015969C938E93E0
S113045014978A2F9B2FD0C084E290E011969C932E
S11304608E9383E290E013969C938E93129785E289
S113047090E015969C938E9314978A2F9B2FBCC063
S113048087E290E011969C938E9386E290E0139617
S11304909C938E93129788E290E015969C938E938A
S11304A014978A2F9B2FA8C08AE290E011969C9300
S11304B08E9389E290E013969C938E9312978BE22D
S11304C090E015969C938E9314978A2F9B2F94C03B
S11304D08DE290E011969C938E938CE290E01396BB
S11304E09C938E9312978EE290E015969C938E9334
S11304F014978A2F9B2F80C080E390E011969C93E1
S11305008E938FE290E013969C938E93129781E3DF
S113051090E015969C938E9314978A2F9B2F6CC012
S113052083E390E011969C938E9382E390E013967C
S11305309C938E93129784E390E015969C938E93EC
S113054014978A2F9B2F58C081E091E011969C93B9
S11305508E9380E091E013969C938E93129782E0A1
S113056091E015969C938E9314978A2F9B2F44C0E9
S113057084E091E011969C938E9383E091E013962E
S11305809C938E93129785E091E015969C938E939D
S113059014978A2F9B2F30C087E091E011969C938B
S11305A08E9386E091E013969C938E93129788E045
S11305B091E015969C938E9314978A2F9B2F1CC0C1
S11305C08AE091E011969C938E9389E091E01396D2
S11305D09C938E9312978BE091E015969C938E9347
S11305E014978A2F9B2F08C080E090E005C080E01C
S11305F090E002C080E090E0DF91CF911F910895D8
S1130600CF92DF92FF920F931F93CF93DF936C01EE
S1130610F12C13C0CF2DD0E0CC0FDD1FF601EC0F71
S1130620FD1F00E010E021E040E06181808129DECF
S1130630C45BDD4F99838883F39482E08F1550F770
S1130640DF91CF911F910F91FF90DF90CF9008958C
S11306508150883050F4E82FF0E0EE0FFF1FE45B88
S1130660FD4F8081918141CE089580E00895CF931C
S1130670C1E005C08C2FECDF811105C0CF5FC43011
S1130680C8F380E001C08C2FCF910895EF92FF92C0
S11306901F93CF93DF937C0110E011C0C12FD0E0F2
S11306A0CC0FDD1FF701EC0FFD1F20E040E061815E
S11306B0808199DDCE5ADD4F998388831F5F18307E
S11306C068F3DF91CF911F91FF90EF9008950F93FE
S11306D01F93CF93DF9320E040E067E081E083DD68
S11306E0CAE6D2E09983888320E040E065E081E0B7
S11306F07ADD9B838A8320E040E064E081E073DD5F
S11307009D838C8320E040E063E084E06CDD9F8384
S11307108E8300E010E021E040E065E084E0B1DD9C
S1130720C2E6D2E09983888321E040E063E087E079
S1130730A8DD9B838A8321E040E065E087E0A1DDBA
S11307409D838C8321E040E061E08AE09ADD9F8311
S11307508E83DF91CF911F910F910895B8CF0895A3
S1130760EF92FF920F931F93CF93DF93D0E03BC0A0
S1130770ED2EF12CF701EE0FFF1FE659FD4F61E05E
S113078080819181EDDCC0E022C00C2F10E0F801E3
S1130790EE0FFF1FEE59FD4F80819181A6DD882366
S11307A0A9F0F701EE0FFF1FE659FD4F60E08081CD
S11307B09181D6DCC701880F991F880F991F875D27
S11307C09D4FFC01E00FF11F808111C0CF5FC43049
S11307D0E0F2F701EE0FFF1FE659FD4F60E0808164
S11307E09181BEDCDF5FD43008F4C2CF8FE7DF91A4
S11307F0CF911F910F91FF90EF90089520E040E07A
S113080060E080E0F0DC90937302809372020895BC
S113081061E08091720290917302A2CC089560E02D
S113082080917202909173029BCC0895E0EAF0E00B
S1130830808180648083E1EAF0E08081826080834B
S1130840808188608083E2E7F0E080818260808339
S113085086E490E19093A9008093A80008958CB554
S1130860837F8CBD8CB580628CBD8CB580618CBD62
S11308708CB583608CBD8DB58E7F8DBD8CB5806449
S11308808CBD0895833051F4E82FF0E0EA57FD4F12
S1130890E081F0E0E35CFD4F80810895E82FF0E013
S11308A0EA57FD4FE081E11104C0809106028111F5
S11308B00AC080910602811110920602F0E0E35C06
S11308C0FD4F808108958FEF08950F931F93CF9369
S11308D081E080930602C0E009C00C2F10E08C2F49
S11308E0D1DFF801EE57FD4F8083CF5FC430A8F30A
S11308F0CF911F910F910895CF93DF93FC01611164
S11309001FC0462F50E09C01ADECBCECD2D69695AE
S1130910879596958795969587959C01220F331F09
S1130920880F991F880F991F880F991F820F931F93
S11309309F01281B390BFA01EA57FD4F208329C078
S1130940462FC62FD0E09C01ADECBCECB2D69695F8
S1130950879596958795969587959C01220F331FC9
S1130960880F991F880F991F880F991F820F931F53
S11309709F01281B390BCA57DD4F28839F0199D645
S11309806FEF640F969587959695879596958795BD
S1130990B3DFDF91CF91089580918A0290E00196B0
S11309A083709078992324F401978C6F9F6F01963C
S11309B080938A020895CF93DF9320E040E060E0C3
S11309C085E011DCCAE7D2E09983888320E040E027
S11309D061E085E008DC9B838A8320E040E062E0FC
S11309E085E001DC9D838C8320E040E063E085E0CA
S11309F0FADB9F838E8320E041E060E081E0F3DB5B
S1130A00909379028093780220E041E061E081E0F4
S1130A10EADB909377028093760220E041E062E083
S1130A2081E0E1DB9093750280937402DF91CF91B2
S1130A300895CF93C0E00BC0EC2FF0E0EE0FFF1F42
S1130A40E658FD4F60E0808191818ADBCF5FC4303E
S1130A5098F3CF910895CF93DF93EC0161E080DBAD
S1130A6060E0CE017DDBDF91CF910895E0918A02B1
S1130A70F0E0EE57FD4F80818EBD08959CDFEFDEE0
S1130A80D5CE089563E038DF20CF089520E00BC071
S1130A90822F90E0FC01E75CFD4F3081FC01EE57B2
S1130AA0FD4F30832F5F243098F308951F920F92E7
S1130AB00FB60F9211240BB60F922F933F934F93BF
S1130AC05F936F937F938F939F93AF93BF93EF93B2
S1130AD0FF93AFDF8091780290917902BCDFE091BF
S1130AE08A02F0E0EE0FFF1FE658FD4F61E08081BF
S1130AF0918136DB51DFBADFFF91EF91BF91AF9166
S1130B009F918F917F916F915F914F913F912F9121
S1130B100F900BBE0F900FBE0F901F9018959C0165
S1130B20245F3140ADECBCECC4D596958795969581
S1130B308795969587950895BC0180E090E09CD4B4
S1130B402AE137E64CE950E449D56AD4CB0108954B
S1130B500F931F93CF93DF93EC0120E041E060E01B
S1130B6086E041DB90938C0280938B0200E010E0DE
S1130B7020E042E067E089E084DBECE7F0E080819C
S1130B8080648083808187608083ABE7B0E08C9150
S1130B9088608C93EAE7F0E08081866080838081BE
S1130BA08068808380818860808380818062808384
S1130BB08C9185608C93E0E8F0E080818061808393
S1130BC0E1E8F0E0808184608083808188608083B4
S1130BD0EFE6F0E080818460808381E19AE790937E
S1130BE08B0080938A00209721F0D0938E02C093CB
S1130BF08D0261E080918B0290918C02B1DAEAE778
S1130C00F0E0808180648083DF91CF911F910F9108
S1130C1008951F920F920FB60F9211240BB60F92E4
S1130C202F933F934F935F936F937F938F939F93F0
S1130C30AF93BF93CF93DF93EF93FF93C0918D0254
S1130C40D0918E02209741F08091780090917900A4
S1130C5073DF65DFFE011995EAE7F0E080818F6EAE
S1130C608083FF91EF91DF91CF91BF91AF919F91DD
S1130C708F917F916F915F914F913F912F910F9041
S1130C800BBE0F900FBE0F901F901895809390028B
S1130C900895BC0190E020E030E012C0A901440FA7
S1130CA0551F220F331F220F331F220F331F240F10
S1130CB0351FFB01E90FF11D4081240F311D9F5F9A
S1130CC0943060F3C9010895AF92BF92CF92DF923E
S1130CD0EF92FF920F931F938FE38F9380E88F938C
S1130CE01F921F92A12CB12C6501E12CF12C00E87C
S1130CF01FE320E030E040EA50E46FE672E183E86D
S1130D009AE38AD10F900F900F900F901F910F913B
S1130D10FF90EF90DF90CF90BF90AF900895CF9366
S1130D20DF93CDB7DEB72E970FB6F894DEBF0FBEB4
S1130D30CDBF8EE0E5E1F2E0DE01119601900D9267
S1130D408A95E1F7CE010196A1DC2E960FB6F894B0
S1130D50DEBF0FBECDBFDF91CF910895CF93DF9358
S1130D6000D000D0CDB7DEB786E0E3E2F2E0DE01EA
S1130D70119601900D928A95E1F7CE01019640DC1F
S1130D8026960FB6F894DEBF0FBECDBFDF91CF918C
S1130D900895C5DFE3DF32DD71DE86E496E0D8DE58
S1130DA0DDCC08950F931F93CF93DF9300D01F9250
S1130DB0CDB7DEB719821A821B821C8280E090E0D4
S1130DC061DE2FEF43EC59E0215040405040E1F701
S1130DD000C00000C5DC809307028A30A8F019C067
S1130DE0292F30E0F901319641E050E04C0F5D1FAE
S1130DF0E40FF51F4081E1E0F0E0EC0FFD1FE20F8E
S1130E00F31F40839F5F01C090E0933048F38C83CD
S1130E1018C08F30B1F411C0822F90E0FC013197DB
S1130E2041E050E04C0F5D1FE40FF51F3081FA01E3
S1130E30E80FF91F3083215001C023E02111ECCFCA
S1130E401982CE01019625DF8C011CDE5FEF85EA55
S1130E509EE0515080409040E1F700C00000809136
S1130E60070293EF980F923008F0B4CF8E30E9F474
S1130E700DDE80910802813019F0823031F009C012
S1130E8010930C0200930B0204C010930A02009307
S1130E90090283E0809308022FEF43ED50E32150D1
S1130EA040405040E1F700C000000F900F900F90B9
S1130EB00F90DF91CF911F910F910895809190022F
S1130EC0EED080938F02D3DB81118093080248DC3B
S1130ED08093070290910802923091F09330F1F0E0
S1130EE0913001F58F3721F08E3011F08D3031F4CF
S1130EF080910B0290910C02C5DD14C053DF12C027
S1130F008F3721F08E3011F08D3031F48091090249
S1130F1090910A02B7DD06C045DF04C080918F02BC
S1130F2090E0B0DD80918F0290E020910B0230912F
S1130F300C028217930710F472CC089520910902D1
S1130F4030910A028217930708F062CC0895BCDE40
S1130F5020DF78942FEF89E698E12150804090407B
S1130F60E1F700C00000AADFFECFCF92DF92EF923C
S1130F70FF9220910D0230910E0240910F02509188
S1130F8010026091990270919A0280919B02909153
S1130F909C0224D36B017C0120E030E0A901609124
S1130FA0950270919602809197029091980216D3BF
S1130FB09B01AC01C701B60163D1FF90EF90DF90B4
S1130FC0CF900895CF92DF92EF92FF92C090990252
S1130FD0D0909A02E0909B02F0909C022091110222
S1130FE0309112024091130250911402C701B601CC
S1130FF0F5D29B01AC01C701B601F0D22091A10248
S11310003091A2024091A3025091A40239D1FF90E1
S1131010EF90DF90CF900895AF92BF92CF92DF927E
S1131020EF92FF920F931F93CF93DF93CDB7DEB769
S11310306093A1027093A2028093A3029093A402EE
S113104020939D0230939E0240939F025093A002EE
S1131050E0929902F0929A0200939B0210939C02F0
S1131060A0929502B0929602C0929702D0929802F2
S11310708E859F85A889B989809391029093920265
S1131080A0939302B0939402DF91CF911F910F919B
S1131090FF90EF90DF90CF90BF90AF9008954F9264
S11310A05F926F927F928F929F92AF92BF92CF92F4
S11310B0DF92EF92FF92CF93DF93CDB7DEB72997FC
S11310C00FB6F894DEBF0FBECDBF898760910D02C5
S11310D070910E0280910F029091100220E030E096
S11310E04FE753E431D1811139C0209191023091FD
S11310F09202409193025091940260E070E080E883
S11311009FE326D16B017C012985622F70E080E08A
S113111090E0B4D1A701960161D260930D0270935F
S11311200E0280930F029093100220919D02309141
S11311309E0240919F025091A002C701B6014ED277
S11311409B01AC01C701B60149D2609311027093AF
S11311501202809313029093140272C006DF698313
S11311607A838B839C832EDF6B017C0180909102B8
S113117090909202A0909302B0909402A5019401E1
S11311802DD22B013C019B01AC01C501B40126D237
S113119020919D0230919E0240919F025091A002A5
S11311A06FD09B01AC0160E070E080E89FE3D0D099
S11311B09B01AC01C301B20111D22B013C01A50179
S11311C0940169817A818B819C8108D26D837E83AD
S11311D08F8398872985622F70E080E090E04ED15C
S11311E02D813E814F8158854AD09B01AC01C301BA
S11311F0B201F4D19B01AC0169817A818B819C811C
S11312003FD060930D0270930E0280930F0290936F
S11312101002A3019201C501B401E0D19B01AC010C
S1131220C701B601DBD19B01AC01C701B60127D0D0
S1131230609311027093120280931302909314022C
S113124060910D0270910E0280910F029091100234
S1131250E7D0862F29960FB6F894DEBF0FBECDBF18
S1131260DF91CF91FF90EF90DF90CF90BF90AF9040
S11312709F908F907F906F905F904F9008955058FB
S1131280BB27AA270ED070C161D130F066D120F0FF
S113129031F49F3F11F41EF456C10EF4E095E7FBC0
S11312A04CC1E92F72D180F3BA1762077307840720
S11312B0950718F071F49EF58AC10EF4E0950B2E93
S11312C0BA2FA02D0B01B90190010C01CA01A00194
S11312D01124FF27591B99F0593F50F4503E68F1EF
S11312E01A16F040A22F232F342F4427585FF3CF30
S11312F0469537952795A795F0405395C9F77EF401
S11313001F16BA0B620B730B840BBAF09150A1F049
S1131310FF0FBB1F661F771F881FC2F70EC0BA0FCF
S1131320621F731F841F48F4879577956795B79557
S1131330F7959E3F08F0B3CF9395880F08F099274F
S1131340EE0F979587950895D4D008F481E0089519
S11313500CD00AC102D140F0F9D030F021F45F3F43
S113136019F0EBC0511134C1EEC00FD198F3992399
S1131370C9F35523B1F3951B550BBB27AA27621755
S11313807307840738F09F5F5F4F220F331F441F9A
S1131390AA1FA9F333D00E2E3AF0E0E830D09150D2
S11313A05040E695001CCAF729D0FE2F27D0660FBF
S11313B0771F881FBB1F261737074807AB07B0E8FE
S11313C009F0BB0B802DBF01FF2793585F4F2AF014
S11313D09E3F510568F0B1C0FBC05F3FECF3983EFF
S11313E0DCF3869577956795B795F7959F5FC9F771
S11313F0880F911D9695879597F90895E1E0660FFA
S1131400771F881FBB1F621773078407BA0720F072
S1131410621B730B840BBA0BEE1F88F7E0950895DB
S1131420BCD088F09F5790F0B92F9927B751A0F0FE
S1131430D1F0660F771F881F991F1AF0BA95C9F764
S113144012C0B13081F0C3D0B1E00895C0C0672F9D
S1131450782F8827B85F39F0B93FCCF38695779514
S11314606795B395D9F73EF49095809570956195FD
S11314707F4F8F4F9F4F0895E89409C097FB3EF428
S113148090958095709561957F4F8F4F9F4F9923CD
S1131490A9F0F92F96E9BB279395F695879577954B
S11314A06795B795F111F8CFFAF4BB0F11F460FF0B
S11314B01BC06F5F7F4F8F4F9F4F16C0882311F063
S11314C096E911C0772321F09EE8872F762F05C077
S11314D0662371F096E8862F70E060E02AF09A9512
S11314E0660F771F881FDAF7880F9695879597F907
S11314F00895990F0008550FAA0BE0E8FEEF1616A1
S11315001706E807F907C0F012161306E407F507F3
S113151098F0621B730B840B950B39F40A2661F067
S1131520232B242B252B21F408950A2609F4A1400A
S1131530A6958FEF811D811D089597F99F6780E817
S113154070E060E008959FEF80EC089500240A9411
S11315501616170618060906089500240A9412168A
S11315601306140605060895092E0394000C11F4BD
S1131570882352F0BB0F40F4BF2B11F460FF04C06A
S11315806F5F7F4F8F4F9F4F089557FD9058440FC3
S1131590551F59F05F3F71F04795880F97FB991FCE
S11315A061F09F3F79F0879508951216130614068B
S11315B0551FF2CF4695F1DF08C016161706180618
S11315C0991FF1CF86957105610508940895E894F3
S11315D0BB2766277727CB0197F908950BD0C4CF93
S11315E0B5DF28F0BADF18F0952309F0A6CFABCF0A
S11315F01124EECFCADFA0F3959FD1F3950F50E0ED
S1131600551F629FF001729FBB27F00DB11D639FB0
S1131610AA27F00DB11DAA1F649F6627B00DA11D56
S1131620661F829F2227B00DA11D621F739FB00DFC
S1131630A11D621F839FA00D611D221F749F33276C
S1131640A00D611D231F849F600D211D822F762F05
S11316506A2F11249F5750408AF0E1F088234AF002
S1131660EE0FFF1FBB1F661F771F881F915050404E
S1131670A9F79E3F510570F060CFAACF5F3FECF30E
S1131680983EDCF3869577956795B795F795E7953A
S11316909F5FC1F7FE2B880F911D9695879597F94B
S11316A00895EE0FFF1F881F8BBF0790F691E02D62
S11316B01994A29FB001B39FC001A39F700D811D17
S11316C01124911DB29F700D811D1124911D089547
S11316D00F931F93CF93DF938230910510F482E030
S11316E090E0E091A702F091A80220E030E0A0E0B1
S11316F0B0E0309719F1408151810281138148177C
S11317005907C8F08417950769F4109731F01296B9
S11317100C93129713961C9327C00093A70210935F
S1131720A80222C02115310519F04217530718F4F5
S11317309A01BD01EF01DF01F801DBCF211531056D
S1131740F9F0281B390B2430310580F48A819B8100
S11317506115710521F0FB019383828304C090938A
S1131760A8028093A702FE01329644C0FE01E20F54
S1131770F31F8193919322503109398328833AC00E
S11317802091A5023091A602232B41F4209102025C
S1131790309103023093A6022093A5022091000207
S11317A0309101022115310541F42DB73EB7409126
S11317B0040250910502241B350BE091A502F0911F
S11317C0A602E217F307A0F42E1B3F0B28173907D4
S11317D078F0AC014E5F5F4F2417350748F04E0F89
S11317E05F1F5093A6024093A5028193919302C078
S11317F0E0E0F0E0CF01DF91CF911F910F910895C8
S1131800CF93DF93009709F481C0FC0132971382D0
S11318101282A091A702B091A802109781F42081AE
S11318203181820F931F2091A5023091A6022817BF
S1131830390751F5F093A602E093A50267C0ED01C4
S113184020E030E0CE17DF0740F44A815B819E013F
S113185041155105F1F0EA01F5CFD383C2834081EC
S11318605181840F951FC817D90759F4888199812C
S1131870840F951F0296918380838A819B81938331
S113188082832115310529F4F093A802E093A7027D
S11318903DC0E901FB83EA8349915991C40FD51FE7
S11318A0EC17FD0761F480819181840F951F0296E6
S11318B0E90199838883828193819B838A83E0E011
S11318C0F0E012968D919C911397009719F0FD0109
S11318D0DC01F7CF8D919C9111979D012E5F3F4FB5
S11318E0820F931F2091A5023091A6022817390771
S11318F069F4309729F41092A8021092A70202C04A
S113190013821282B093A602A093A502DF91CF9115
S10919100895F894FFCFD6
S11319160000A9022000017F031800160000007FC2
S113192643000080BF00010002000300040005001C
S11319360600070200020102020102030A04050668
S11319460B0708090C0D000E0F49118361039F252F
S10B19560D9949411F0119001C
S9030000FC
