:1000000071C0000081C000007FC000007DC0000002
:100010007BC0000079C0000077C0000075C0000000
:1000200073C0000071C000006FC000006DC0000010
:100030006BC0000069C0000067C0000065C0000020
:1000400063C0000061C000005FC000005DC0000030
:100050005BC0000059C0000057C0000055C0000040
:1000600053C0000051C000004FC000004DC0000050
:100070004BC00000F2C0000047C0000045C00000B7
:1000800043C0000041C000003FC000003DC0000070
:100090003BC0000039C0000037C0000035C0000080
:1000A00033C0000031C000002FC000002DC0000090
:1000B0002BC0000029C0000027C0000025C00000A0
:1000C00023C0000021C000001FC000001DC00000B0
:1000D0001BC0000019C0000017C0000015C00000C0
:1000E00013C0000011241FBECFEFD1E2DEBFCDBF91
:1000F00000E00CBF22E0A0E0B2E001C01D92A330FE
:10010000B207E1F7EAD027C27BCF8FEF81B982B97E
:1001100008959FEF980F983000F5613081F442B157
:1001200090E0019721E030E0B90102C0660F771F2F
:100130008A95E2F7CB018095842382B9089542B174
:1001400090E0019721E030E0B90102C0660F771F0F
:100150008A95E2F7CB01842B82B90895CF93DF9380
:10016000893060F00FC0DC1720F061E08C2FD1DF08
:1001700003C060E08C2FCDDFCF5F02C0D82FC1E07D
:10018000C93088F3DF91CF9108959C01245F3140FD
:10019000ADECBCECD1D196958795969587959695C3
:1001A00087950895BC0180E090E0D5D02AE137E63C
:1001B0004CE950E436D1A3D0CB0108959C01E7E08F
:1001C000F1E080818F77808383B3816083BBECE72C
:1001D000F0E0808180648083808187608083ABE7EA
:1001E000B0E08C9188608C93EAE7F0E080818660D3
:1001F0008083808180688083808188608083808123
:10020000806280838C9185608C93E0E8F0E090813F
:1002100092609083908190619083E1E8F0E090811A
:1002200094609083EFE6F0E090819460908381E1A8
:100230009AE790938B0080938A002115310521F075
:10024000309301022093000284B3816084BBEAE70B
:10025000F0E080818064808308951F920F920FB632
:100260000F9211240BB60F922F933F934F935F93EE
:100270006F937F938F939F93AF93BF93CF93DF93AE
:10028000EF93FF93C0910002D0910102209741F0BB
:10029000809178009091790085DF77DFFE011995D4
:1002A000EAE7F0E080818F6E8083FF91EF91DF912C
:1002B000CF91BF91AF919F918F917F916F915F91FE
:1002C0004F913F912F910F900BBE0F900FBE0F904B
:1002D0001F90189580930202089517DF8AE691E037
:1002E0006DDF789480910202815111F437DFFACFEB
:1002F000893010F433DFF6CF88E030DFF3CF70D0F1
:1003000088F09F5790F0B92F9927B751A0F0D1F0FE
:10031000660F771F881F991F1AF0BA95C9F712C088
:10032000B13081F077D0B1E0089574C0672F782F95
:100330008827B85F39F0B93FCCF3869577956795F4
:10034000B395D9F73EF490958095709561957F4F60
:100350008F4F9F4F0895E89409C097FB3EF4909506
:100360008095709561957F4F8F4F9F4F9923A9F08E
:10037000F92F96E9BB279395F6958795779567951D
:10038000B795F111F8CFFAF4BB0F11F460FF1BC061
:100390006F5F7F4F8F4F9F4F16C0882311F096E9F4
:1003A00011C0772321F09EE8872F762F05C06623A2
:1003B00071F096E8862F70E060E02AF09A95660F5B
:1003C000771F881FDAF7880F9695879597F9089514
:1003D00057FD9058440F551F59F05F3F71F04795F6
:1003E000880F97FB991F61F09F3F79F087950895DB
:1003F000121613061406551FF2CF4695F1DF08C0FA
:10040000161617061806991FF1CF86957105610516
:1004100008940895E894BB2766277727CB0197F9BE
:1004200008950BD078C069D028F06ED018F09523CD
:1004300009F05AC05FC01124EECFCADFA0F3959F28
:10044000D1F3950F50E0551F629FF001729FBB27BB
:10045000F00DB11D639FAA27F00DB11DAA1F649F67
:100460006627B00DA11D661F829F2227B00DA11D1A
:10047000621F739FB00DA11D621F839FA00D611DA0
:10048000221F749F3327A00D611D231F849F600DC1
:10049000211D822F762F6A2F11249F5750408AF0FA
:1004A000E1F088234AF0EE0FFF1FBB1F661F771F86
:1004B000881F91505040A9F79E3F510570F014C01D
:1004C000AACF5F3FECF3983EDCF38695779567956E
:1004D000B795F795E7959F5FC1F7FE2B880F911DA4
:1004E0009695879597F9089597F99F6780E870E04A
:1004F00060E008959FEF80EC089500240A9416169A
:10050000170618060906089500240A941216130601
:10051000140605060895092E0394000C11F488238F
:1005200052F0BB0F40F4BF2B11F460FF04C06F5FAB
:100530007F4F8F4F9F4F0895A29FB001B39FC0017F
:10054000A39F700D811D1124911DB29F700D811DFF
:0A0550001124911D0895F894FFCFC7
:00000001FF
