S014000061737369676E6D656E745F332E7372656345
S113000071C000008EC000008CC000008AC00000D7
S113001088C0000086C0000084C0000082C00000C8
S113002080C000007EC000007CC000007AC00000D8
S113003078C0000076C0000074C0000072C00000E8
S113004070C000006EC000006CC000006AC00000F8
S113005068C0000066C0000064C0000062C0000008
S113006060C000005EC000005CC000005AC0000018
S113007058C0000030C2000054C0000052C000004C
S113008050C000004EC000004CC000004AC0000038
S113009048C0000046C0000044C0000042C0000048
S11300A040C000003EC000000AC100003AC0000089
S11300B038C0000036C0000034C0000032C0000068
S11300C030C000002EC000002CC000002AC0000078
S11300D028C0000026C0000024C0000022C0000088
S11300E020C0000011241FBECFEFD1E2DEBFCDBF80
S11300F000E00CBF12E0A0E0B2E0E4EFF7E000E0C3
S11301000BBF02C007900D92AC30B107D9F722E0C3
S1130110ACE0B2E001C01D92A931B207E1F71BD2F5
S113012067C36ECFE0EAF0E0808180648083E1EA17
S1130130F0E0808182608083808188608083E2E750
S1130140F0E080818260808386E490E19093A9004E
S11301508093A8000895833051F4E82FF0E0E05F25
S1130160FD4FE081F0E0EF5FFD4F80810895E82FBF
S1130170F0E0E05FFD4FE081E11104C080910002F6
S113018081110AC080910002811110920002F0E0F6
S1130190EF5FFD4F808108958FEF08950F931F93B4
S11301A0CF9381E080930002C0E009C00C2F10E0DF
S11301B08C2FD1DFF801E45FFD4F8083CF5FC43023
S11301C0A8F3CF911F910F910895CF93DF93FC0172
S11301D061111FC0462F50E09C01ADECBCECF9D27C
S11301E09695879596958795969587959C01220F68
S11301F0331F880F991F880F991F880F991F820F2B
S1130200931F9F01281B390BFA01E05FFD4F2083E8
S113021029C0462FC62FD0E09C01ADECBCECD9D24E
S11302209695879596958795969587959C01220F27
S1130230331F880F991F880F991F880F991F820FEA
S1130240931F9F01281B390BC05FDD4F28839F013B
S1130250C0D26FEF640F969587959695879596957E
S11302608795B3DFDF91CF9108958093150280B312
S11302708F6080BB84B1846084B984B1826084B9A6
S113028084B1816084B980911502813091F48CB578
S1130290837F8CBD8CB580628CBD8CB580618CBD38
S11302A08CB583608CBD8DB58E7F8DBD8CB580641F
S11302B08CBD38CF089563E088DF70CF08951F9216
S11302C00F920FB60F9211240BB60F922F938F93A8
S11302D09F93EF93FF9381B38F6081BB85B181605E
S11302E085B985B18E7F85B921B381E090E0009016
S11302F0140202C0880F991F0A94E2F780958223A2
S113030081BB809114028F5F80931402843011F4B6
S11303101092140280911502813031F5E09114029B
S1130320F0E0E45FFD4F80818EBD21C0E0911402B6
S1130330F0E0E45FFD4F808190E0022E02C09595CD
S113034087950A94E2F780FF04C085B1846085B97B
S113035003C085B18B7F85B985B1826085B985B1CC
S11303608D7F85B92F5F01C020E02830F8F2FF911E
S1130370EF919F918F912F910F900BBE0F900FBE15
S11303800F901F9018958FEF81B982B908959FEF50
S1130390980F983000F5613081F442B190E00197F4
S11303A021E030E0B90102C0660F771F8A95E2F7B9
S11303B0CB018095842382B9089542B190E00197DE
S11303C021E030E0B90102C0660F771F8A95E2F799
S11303D0CB01842B82B90895CF93DF93893060F0E9
S11303E00FC0DC1720F061E08C2FD1DF03C060E088
S11303F08C2FCDDFCF5F02C0D82FC1E0C93088F386
S1130400DF91CF9108959C01245F3140ADECBCECA9
S1130410E0D19695879596958795969587950895B5
S1130420BC0180E090E0E4D02AE137E64CE950E4F6
S113043045D1B2D0CB0108959C01E7E0F1E0808181
S11304408F77808383B3816083BBECE7F0E08081A6
S113045080648083808187608083ABE7B0E08C9187
S113046088608C93EAE7F0E08081866080838081F5
S113047080688083808188608083808180628083BB
S11304808C9185608C93E0E8F0E09081906190839A
S1130490E1E8F0E09081946090839081986090838B
S11304A0EFE6F0E090819460908381E19AE7909385
S11304B08B0080938A002115310521F030931702B7
S11304C02093160284B3816084BBEAE7F0E0808164
S11304D08064808308951F920F920FB60F921124A7
S11304E00BB60F922F933F934F935F936F937F932A
S11304F08F939F93AF93BF93CF93DF93EF93FF9328
S1130500C0911602D0911702209741F08091780093
S11305109091790085DF77DFFE011995EAE7F0E035
S113052080818F6E8083FF91EF91DF91CF91BF9196
S1130530AF919F918F917F916F915F914F913F9177
S11305402F910F900BBE0F900FBE0F901F90189518
S113055080931802089517DF88EA92E06DDF81E046
S113056084DE78942FEF89E698E121508040904012
S1130570E1F700C000008091180290E09CDE8091B9
S11305801802825111F428DFF6CF893010F424DFE9
S1130590F2CF88E021DFEFCF70D088F09F5790F042
S11305A0B92F9927B751A0F0D1F0660F771F881F94
S11305B0991F1AF0BA95C9F712C0B13081F077D0FB
S11305C0B1E0089574C0672F782F8827B85F39F099
S11305D0B93FCCF3869577956795B395D9F73EF4F3
S11305E090958095709561957F4F8F4F9F4F08959B
S11305F0E89409C097FB3EF49095809570956195B9
S11306007F4F8F4F9F4F9923A9F0F92F96E9BB276E
S11306109395F695879577956795B795F111F8CFEA
S1130620FAF4BB0F11F460FF1BC06F5F7F4F8F4F55
S11306309F4F16C0882311F096E911C0772321F04B
S11306409EE8872F762F05C0662371F096E8862FE3
S113065070E060E02AF09A95660F771F881FDAF73A
S1130660880F9695879597F9089557FD9058440FEC
S1130670551F59F05F3F71F04795880F97FB991FFD
S113068061F09F3F79F087950895121613061406BA
S1130690551FF2CF4695F1DF08C016161706180647
S11306A0991FF1CF86957105610508940895E89422
S11306B0BB2766277727CB0197F908950BD078C01D
S11306C069D028F06ED018F0952309F05AC05FC0A5
S11306D01124EECFCADFA0F3959FD1F3950F50E01C
S11306E0551F629FF001729FBB27F00DB11D639FE0
S11306F0AA27F00DB11DAA1F649F6627B00DA11D86
S1130700661F829F2227B00DA11D621F739FB00D2B
S1130710A11D621F839FA00D611D221F749F33279B
S1130720A00D611D231F849F600D211D822F762F34
S11307306A2F11249F5750408AF0E1F088234AF031
S1130740EE0FFF1FBB1F661F771F881F915050407D
S1130750A9F79E3F510570F014C0AACF5F3FECF398
S1130760983EDCF3869577956795B795F795E79569
S11307709F5FC1F7FE2B880F911D9695879597F97A
S1130780089597F99F6780E870E060E008959FEF0F
S113079080EC089500240A94161617061806090614
S11307A0089500240A9412161306140605060895E3
S11307B0092E0394000C11F4882352F0BB0F40F46B
S11307C0BF2B11F460FF04C06F5F7F4F8F4F9F4FAB
S11307D00895A29FB001B39FC001A39F700D811D16
S11307E01124911DB29F700D811D1124911D089536
S10707F0F894FFCFA7
S10F07F401039F250D9949411F0119FFC5
S9030000FC
