:1000000071C000008EC000008CC000008AC00000DB
:1000100088C0000086C0000084C0000082C00000CC
:1000200080C000007EC000007CC000007AC00000DC
:1000300078C0000076C0000074C0000072C00000EC
:1000400070C000006EC000006CC000006AC00000FC
:1000500068C0000066C0000064C0000062C000000C
:1000600060C000005EC000005CC000005AC000001C
:1000700058C000001EC2000054C0000052C0000062
:1000800050C000004EC000004CC000004AC000003C
:1000900048C0000046C0000044C0000042C000004C
:1000A00040C000003EC000004EC100003AC0000049
:1000B00038C0000036C0000034C0000032C000006C
:1000C00030C000002EC000002CC000002AC000007C
:1000D00028C0000026C0000024C0000022C000008C
:1000E00020C0000011241FBECFEFD1E2DEBFCDBF84
:1000F00000E00CBF12E0A0E0B2E0E4EAF7E000E0CC
:100100000BBF02C007900D92A431B107D9F722E0CE
:10011000A4E1B2E001C01D92A731B207E1F709D214
:100120003FC36ECFE0EAF0E0808180648083E1EA43
:10013000F0E0808182608083808188608083E2E754
:10014000F0E080818260808386E490E19093A90052
:100150008093A800089580B38F6080BB8CB5837FA7
:100160008CBD8CB580628CBD8CB580618CBD8CB52E
:1001700083608CBD8DB58E7F8DBD8CB580648CBD4C
:1001800084B1846084B984B1826084B984B18160AF
:1001900084B9C8CF0895282F30E0F901EC5FFD4FF6
:1001A000E081811102C0EE2301F1813049F4E111B7
:1001B00007C0D901AD5FBD4F8C91811111C017C02F
:1001C000823071F4E1110CC0D901AD5FBD4F8C914B
:1001D000811106C0D901AE5FBD4F8C91882349F0D3
:1001E000F0E0E75FFD4F808108958FEF08958FEF76
:1001F00008958FEF08950F931F93CF93C0E009C028
:100200000C2F10E08C2FC7DFF801E050FE4F8083E9
:10021000CF5FC430A8F3CF911F910F910895CF9372
:10022000DF93AC019C01ADECBCECABD2969587950D
:1002300096958795969587959C01220F331F880F79
:10024000991F880F991F880F991F820F931F9A017A
:10025000281B390BE4E0F2E023839A0192D2EC01EF
:10026000D695C795D695C795D695C7959E0189D23F
:100270009695879596958795969587959C01220FDB
:10028000331F880F991F880F991F880F991F820F9E
:10029000931F9E01281B390B22839A0136952795BF
:1002A00036952795ABE7B4E16CD2EC01D695C795AE
:1002B0009E01ADECBCEC65D2969587959695879599
:1002C000969587959C01220F331F880F991F880FE1
:1002D000991F880F991F820F931F9E01281B390BAE
:1002E00021839A013695279536952795369527953A
:1002F000A5ECB0E246D2AC01529542954F7045272D
:100300005F7045279A01ADECBCEC3BD29695879582
:1003100096958795969587959C01220F331F880F98
:10032000991F880F991F880F991F820F931F9A0199
:10033000281B390B20835FDFDF91CF91089581B3B4
:100340008F6081BB08951F920F920FB60F921124F8
:100350000BB60F922F933F934F935F936F937F93BF
:100360008F939F93AF93BF93EF93FF93E8DF85B194
:10037000816085B985B18E7F85B921B381E090E038
:100380000090080202C0880F991F0A94E2F7809536
:10039000822381BB809108028F5F809308028430A2
:1003A00011F410920802E0910802F0E0E050FE4FD4
:1003B00080818EBDFF91EF91BF91AF919F918F9101
:1003C0007F916F915F914F913F912F910F900BBE55
:1003D0000F900FBE0F901F9018958FEF81B982B9C3
:1003E00008959C01245F3140ADECBCECCAD19695D8
:1003F000879596958795969587950895BC0180E099
:1004000090E0CED02AE137E64CE950E42FD19CD0E1
:10041000CB0108959C01E7E0F1E080818F77808334
:1004200083B3816083BBECE7F0E0808180648083EC
:10043000808187608083ABE7B0E08C9188608C938B
:10044000EAE7F0E080818660808380818068808335
:100450008081886080838081806280838C918560C8
:100460008C93E1E8F0E0908198609083A0E8B0E0A0
:100470009C9190619C93908194609083EFE6F0E072
:1004800090819460908381E19AE790938B008093B0
:100490008A002115310521F03093150220931402B2
:1004A00084B3816084BBEAE7F0E08081806480836C
:1004B00008951F920F920FB60F9211240BB60F9250
:1004C0002F933F934F935F936F937F938F939F935C
:1004D000AF93BF93CF93DF93EF93FF93C091140239
:1004E000D0911502209741F0809178009091790089
:1004F00085DF77DFFE011995EAE7F0E080818F6EF6
:100500008083FF91EF91DF91CF91BF91AF919F9148
:100510008F917F916F915F914F913F912F910F90AC
:100520000BBE0F900FBE0F901F9018958093160270
:10053000089553DF86E992E06DDF0DDE78948091B7
:10054000160290E06CDEFBCF70D088F09F5790F0E1
:10055000B92F9927B751A0F0D1F0660F771F881FE8
:10056000991F1AF0BA95C9F712C0B13081F077D04F
:10057000B1E0089574C0672F782F8827B85F39F0ED
:10058000B93FCCF3869577956795B395D9F73EF447
:1005900090958095709561957F4F8F4F9F4F0895EF
:1005A000E89409C097FB3EF490958095709561950D
:1005B0007F4F8F4F9F4F9923A9F0F92F96E9BB27C3
:1005C0009395F695879577956795B795F111F8CF3F
:1005D000FAF4BB0F11F460FF1BC06F5F7F4F8F4FAA
:1005E0009F4F16C0882311F096E911C0772321F0A0
:1005F0009EE8872F762F05C0662371F096E8862F38
:1006000070E060E02AF09A95660F771F881FDAF78E
:10061000880F9695879597F9089557FD9058440F40
:10062000551F59F05F3F71F04795880F97FB991F51
:1006300061F09F3F79F0879508951216130614060E
:10064000551FF2CF4695F1DF08C01616170618069B
:10065000991FF1CF86957105610508940895E89476
:10066000BB2766277727CB0197F908950BD078C071
:1006700069D028F06ED018F0952309F05AC05FC0F9
:100680001124EECFCADFA0F3959FD1F3950F50E070
:10069000551F629FF001729FBB27F00DB11D639F34
:1006A000AA27F00DB11DAA1F649F6627B00DA11DDA
:1006B000661F829F2227B00DA11D621F739FB00D80
:1006C000A11D621F839FA00D611D221F749F3327F0
:1006D000A00D611D231F849F600D211D822F762F89
:1006E0006A2F11249F5750408AF0E1F088234AF086
:1006F000EE0FFF1FBB1F661F771F881F91505040D2
:10070000A9F79E3F510570F014C0AACF5F3FECF3EC
:10071000983EDCF3869577956795B795F795E795BD
:100720009F5FC1F7FE2B880F911D9695879597F9CE
:10073000089597F99F6780E870E060E008959FEF63
:1007400080EC089500240A94161617061806090668
:10075000089500240A941216130614060506089537
:10076000092E0394000C11F4882352F0BB0F40F4BF
:10077000BF2B11F460FF04C06F5F7F4F8F4F9F4FFF
:100780000895A29FB001B39FC001A39F700D811D6A
:100790001124911DB29F700D811D1124911D08958A
:0407A000F894FFCFFB
:1007A400FFFFFFFF0808080802039F250D99494130
:0407B4001F0119FF09
:00000001FF
