:1000000071C000008EC000008CC000008AC00000DB
:1000100088C0000086C0000084C0000082C00000CC
:1000200080C000007EC000007CC000007AC00000DC
:1000300078C0000076C0000074C0000072C00000EC
:1000400070C000006EC000006CC000006AC00000FC
:1000500068C0000066C0000064C0000062C000000C
:1000600060C000005EC000005CC000005AC000001C
:1000700058C0000043C3000054C0000052C000003C
:1000800050C000004EC000004CC000004AC000003C
:1000900048C0000046C0000044C0000042C000004C
:1000A00040C000003EC000000AC100003AC000008D
:1000B00038C0000036C0000034C0000032C000006C
:1000C00030C000002EC000002CC000002AC000007C
:1000D00028C0000026C0000024C0000022C000008C
:1000E00020C0000011241FBECFEFD1E2DEBFCDBF84
:1000F00000E00CBF12E0A0E0B2E0EAE5FBE000E0C7
:100100000BBF02C007900D92A635B107D9F722E0C8
:10011000A6E5B2E001C01D92A936B207E1F7DBD334
:100120001AC56ECFE0EAF0E0808180648083E1EA66
:10013000F0E0808182608083808188608083E2E754
:10014000F0E080818260808386E490E19093A90052
:100150008093A8000895833051F4E82FF0E0E65A28
:10016000FD4FE081F0E0ED5FFD4F80810895E82FC5
:10017000F0E0E65AFD4FE081E11104C080910002F9
:1001800081110AC080910002811110920002F0E0FA
:10019000ED5FFD4F808108958FEF08950F931F93BA
:1001A000CF9381E080930002C0E009C00C2F10E0E3
:1001B0008C2FD1DFF801EA5AFD4F8083CF5FC43026
:1001C000A8F3CF911F910F910895CF93DF93FC0176
:1001D00061111FC0462F50E09C01ADECBCECACD4CB
:1001E0009695879596958795969587959C01220F6C
:1001F000331F880F991F880F991F880F991F820F2F
:10020000931F9F01281B390BFA01E65AFD4F2083EB
:1002100029C0462FC62FD0E09C01ADECBCEC8CD49D
:100220009695879596958795969587959C01220F2B
:10023000331F880F991F880F991F880F991F820FEE
:10024000931F9F01281B390BC65ADD4F28839F013E
:1002500073D46FEF640F96958795969587959695CD
:100260008795B3DFDF91CF91089580935F0280B3CC
:100270008F6080BB84B1846084B984B1826084B9AA
:1002800084B1816084B980915F02813091F48CB532
:10029000837F8CBD8CB580628CBD8CB580618CBD3C
:1002A0008CB583608CBD8DB58E7F8DBD8CB5806423
:1002B0008CBD38CF089563E088DF70CF08951F921A
:1002C0000F920FB60F9211240BB60F922F938F93AC
:1002D0009F93EF93FF9381B38F6081BB85B1816062
:1002E00085B985B18E7F85B921B381E090E000901A
:1002F0005E0202C0880F991F0A94E2F7809582235C
:1003000081BB80915E028F5F80935E02843011F426
:1003100010925E0280915F02813031F5E0915E02C1
:10032000F0E0EA5AFD4F80818EBD21C0E0915E026F
:10033000F0E0EA5AFD4F808190E0022E02C09595D0
:1003400087950A94E2F780FF04C085B1846085B97F
:1003500003C085B18B7F85B985B1826085B985B1D0
:100360008D7F85B92F5F01C020E02830F8F2FF9122
:10037000EF919F918F912F910F900BBE0F900FBE19
:100380000F901F90189587B1807C87B98AB1837FC1
:100390008AB988B18F6388B98BB18C608BB90895A5
:1003A0009FEF980F983010F5873080F496B1282F82
:1003B00030E021503109892F90E002C09595879552
:1003C0002A95E2F721E082278170089599B1282FBC
:1003D00030E025503109892F90E002C0959587952E
:1003E0002A95E2F721E082278170089580E0089540
:1003F000CF93C0E005C0CF5F8C2FD2DF813021F0DA
:10040000C830C8F380E001C08C2FCF9108958FEFE2
:1004100081B982B908959FEF980F983000F5613047
:1004200081F442B190E0019721E030E0B90102C0CF
:10043000660F771F8A95E2F7CB018095842382B9F6
:10044000089542B190E0019721E030E0B90102C087
:10045000660F771F8A95E2F7CB01842B82B9089546
:10046000CF93DF93893060F00FC0DC1720F061E09C
:100470008C2FD1DF03C060E08C2FCDDFCF5F02C0B7
:10048000D82FC1E0C93088F3DF91CF91089520E0E3
:1004900022C0822F90E0FC01EE0FFF1FEE0FFF1F26
:1004A000EE0FFF1FE81BF90BE25EFD4FA081B1814B
:1004B0003C9181E090E0068002C0880F991F0A9469
:1004C000E2F7932F982B9C930480F581E02D908187
:1004D000892B80832F5F2430E0F224E023C0822F19
:1004E00090E0FC01EE0FFF1FEE0FFF1FEE0FFF1F4E
:1004F000E81BF90BE25EFD4FA081B1813C9181E0E8
:1005000090E0068002C0880F991F0A94E2F7982FA6
:10051000909593239C930480F581E02D9081892B05
:1005200080832F5F2830D8F2089530E07BC0632F9E
:1005300070E0DB01AA0FBB1FAA0FBB1FAA0FBB1FD6
:10054000A61BB70BA25EBD4F1496ED91FC911597BB
:10055000208181E090E016960C9002C0880F991FD0
:100560000A94E2F780958223808324E03FC0422FE3
:1005700050E0FA01EE0FFF1FEE0FFF1FEE0FFF1FFF
:10058000E41BF50BE25EFD4FA281B3818C9190E0FC
:10059000068002C0959587950A94E2F780FD25C0F4
:1005A000FB01EE0FFF1FEE0FFF1FEE0FFF1FE61BFD
:1005B000F70BE25EFD4FA481B5812C9181E090E0C4
:1005C000068002C0880F991F0A94E2F7822B8C9351
:1005D00044505109FB01EE0FFF1FEE0FFF1FE25FBA
:1005E000FD4FE40FF51F808108952F5F283008F438
:1005F000BECFFB01EE0FFF1FEE0FFF1FEE0FFF1F21
:10060000E61BF70BE25EFD4FA481B5812C9181E0E2
:1006100090E0068002C0880F991F0A94E2F7822BAF
:100620008C933F5F343008F482CF8FE708959C01AC
:10063000245F3140ADECBCEC7FD2969587959695C2
:100640008795969587950895BC0180E090E083D1C9
:100650002AE137E64CE950E4E4D151D1CB010895C9
:100660009C01E7E0F1E080818F77808383B3816034
:1006700083BBECE7F0E080818064808380818760C9
:100680008083EBE7F0E0808188608083AAE7B0E0B8
:100690009C9196609C93908195609083E0E8F0E057
:1006A000908190619083E1E8F0E090819460908384
:1006B00090819860908381E19AE790938B0080937A
:1006C0008A0090938900809388002115310521F0DC
:1006D0003093610220936002EAE7F0E08081886055
:1006E000808380818062808384B3816084BB8081C9
:1006F0008068808380818064808308951F920F9238
:100700000FB60F9211240BB60F922F933F934F9376
:100710005F936F937F938F939F93AF93BF93CF9389
:10072000DF93EF93FF93C0916002D0916102209715
:1007300041F0809178009091790086DF78DFFE01AA
:10074000199520918A0030918B0081E090E002C0E1
:10075000880F991F2A95E2F796B3892B86BBFF91E4
:10076000EF91DF91CF91BF91AF919F918F917F9149
:100770006F915F914F913F912F910F900BBE0F9012
:100780000FBE0F901F901895809368020895BC01CA
:1007900090E020E030E012C0A901440F551F220F65
:1007A000331F220F331F220F331F240F351FFB016E
:1007B000E90FF11D4081240F311D9F5F943060F3DC
:1007C000C90108954E3031F4E4E6F2E0138212825A
:1007D0008FE708954D3031F4E4E6F2E0138212829F
:1007E0008FE708954A3040F4E4E6F2E083818283A3
:1007F0004383CF01CCCF08958FE70895809168029D
:1008000090E020910102022E000C330B28173907CB
:100810001CF481E025DE04C0439714F480E020DE60
:10082000E7DD81118093020280910202823059F04B
:10083000833021F0813009F04DC02BC080916802D7
:1008400090E039CD089580916202882329F0082E26
:10085000000C990B30DD06C080910102082E000CBF
:10086000990B29DD62DE2FEF33EC99E02150304007
:100870009040E1F700C000008F3761F1482F609190
:100880000102809162029EDF8F3721F18093620224
:10089000089580916302882329F0082E000C990B9B
:1008A0000ADD03C083E190E006DD3FDE2FEF33EC8D
:1008B00099E0215030409040E1F700C000008F37B0
:1008C00049F0482F63E1809163027CDF8F3711F09C
:1008D0008093630208959BDD84EC93E0C1DE81E0A8
:1008E000C4DCD5DD50DD78942FEF89E698E1215006
:1008F00080409040E1F700C0000080DFFECF70D064
:1009000088F09F5790F0B92F9927B751A0F0D1F0F8
:10091000660F771F881F991F1AF0BA95C9F712C082
:10092000B13081F077D0B1E0089574C0672F782F8F
:100930008827B85F39F0B93FCCF3869577956795EE
:10094000B395D9F73EF490958095709561957F4F5A
:100950008F4F9F4F0895E89409C097FB3EF4909500
:100960008095709561957F4F8F4F9F4F9923A9F088
:10097000F92F96E9BB279395F69587957795679517
:10098000B795F111F8CFFAF4BB0F11F460FF1BC05B
:100990006F5F7F4F8F4F9F4F16C0882311F096E9EE
:1009A00011C0772321F09EE8872F762F05C066239C
:1009B00071F096E8862F70E060E02AF09A95660F55
:1009C000771F881FDAF7880F9695879597F908950E
:1009D00057FD9058440F551F59F05F3F71F04795F0
:1009E000880F97FB991F61F09F3F79F087950895D5
:1009F000121613061406551FF2CF4695F1DF08C0F4
:100A0000161617061806991FF1CF86957105610510
:100A100008940895E894BB2766277727CB0197F9B8
:100A200008950BD078C069D028F06ED018F09523C7
:100A300009F05AC05FC01124EECFCADFA0F3959F22
:100A4000D1F3950F50E0551F629FF001729FBB27B5
:100A5000F00DB11D639FAA27F00DB11DAA1F649F61
:100A60006627B00DA11D661F829F2227B00DA11D14
:100A7000621F739FB00DA11D621F839FA00D611D9A
:100A8000221F749F3327A00D611D231F849F600DBB
:100A9000211D822F762F6A2F11249F5750408AF0F4
:100AA000E1F088234AF0EE0FFF1FBB1F661F771F80
:100AB000881F91505040A9F79E3F510570F014C017
:100AC000AACF5F3FECF3983EDCF386957795679568
:100AD000B795F795E7959F5FC1F7FE2B880F911D9E
:100AE0009695879597F9089597F99F6780E870E044
:100AF00060E008959FEF80EC089500240A94161694
:100B0000170618060906089500240A9412161306FB
:100B1000140605060895092E0394000C11F4882389
:100B200052F0BB0F40F4BF2B11F460FF04C06F5FA5
:100B30007F4F8F4F9F4F0895A29FB001B39FC00179
:100B4000A39F700D811D1124911DB29F700D811DF9
:0A0B50001124911D0895F894FFCFC1
:100B5A00011903039F250D9949411F0119FF01023C
:100B6A00030A0405060B0708090C0D000E0F2400E2
:100B7A002300250007240023002500052400230064
:100B8A002500042D002C002E00032D002C002E0021
:100B9A000501010001020103010100010201050A28
:060BAA000109010B01012D
:00000001FF
